{
  "_format": "hh-sol-artifact-1",
  "contractName": "AuditLog",
  "sourceName": "contracts/AuditLog.sol",
  "abi": [
    {
      "inputs": [
        {
          "internalType": "address",
          "name": "_trustedLogger",
          "type": "address"
        }
      ],
      "stateMutability": "nonpayable",
      "type": "constructor"
    },
    {
      "inputs": [],
      "name": "DuplicateReport",
      "type": "error"
    },
    {
      "inputs": [],
      "name": "UnauthorizedLogger",
      "type": "error"
    },
    {
      "inputs": [],
      "name": "ZeroAddress",
      "type": "error"
    },
    {
      "anonymous": false,
      "inputs": [
        {
          "indexed": true,
          "internalType": "bytes32",
          "name": "reportHash",
          "type": "bytes32"
        },
        {
          "indexed": true,
          "internalType": "address",
          "name": "contractAudited",
          "type": "address"
        },
        {
          "indexed": true,
          "internalType": "address",
          "name": "initiator",
          "type": "address"
        },
        {
          "indexed": false,
          "internalType": "uint256",
          "name": "timestamp",
          "type": "uint256"
        },
        {
          "indexed": false,
          "internalType": "uint8",
          "name": "severity",
          "type": "uint8"
        }
      ],
      "name": "AuditLogged",
      "type": "event"
    },
    {
      "inputs": [
        {
          "internalType": "uint256",
          "name": "",
          "type": "uint256"
        }
      ],
      "name": "allHashes",
      "outputs": [
        {
          "internalType": "bytes32",
          "name": "",
          "type": "bytes32"
        }
      ],
      "stateMutability": "view",
      "type": "function"
    },
    {
      "inputs": [
        {
          "internalType": "bytes32",
          "name": "",
          "type": "bytes32"
        }
      ],
      "name": "auditEntries",
      "outputs": [
        {
          "internalType": "bytes32",
          "name": "reportHash",
          "type": "bytes32"
        },
        {
          "internalType": "address",
          "name": "contractAudited",
          "type": "address"
        },
        {
          "internalType": "address",
          "name": "initiator",
          "type": "address"
        },
        {
          "internalType": "uint256",
          "name": "timestamp",
          "type": "uint256"
        },
        {
          "internalType": "uint8",
          "name": "severity",
          "type": "uint8"
        },
        {
          "internalType": "bool",
          "name": "exists",
          "type": "bool"
        }
      ],
      "stateMutability": "view",
      "type": "function"
    },
    {
      "inputs": [
        {
          "internalType": "uint256",
          "name": "offset",
          "type": "uint256"
        },
        {
          "internalType": "uint256",
          "name": "limit",
          "type": "uint256"
        }
      ],
      "name": "getAuditHashes",
      "outputs": [
        {
          "internalType": "bytes32[]",
          "name": "",
          "type": "bytes32[]"
        }
      ],
      "stateMutability": "view",
      "type": "function"
    },
    {
      "inputs": [
        {
          "internalType": "bytes32",
          "name": "reportHash",
          "type": "bytes32"
        },
        {
          "internalType": "address",
          "name": "contractAddress",
          "type": "address"
        },
        {
          "internalType": "uint8",
          "name": "severity",
          "type": "uint8"
        }
      ],
      "name": "logAudit",
      "outputs": [],
      "stateMutability": "nonpayable",
      "type": "function"
    },
    {
      "inputs": [],
      "name": "totalAudits",
      "outputs": [
        {
          "internalType": "uint256",
          "name": "",
          "type": "uint256"
        }
      ],
      "stateMutability": "view",
      "type": "function"
    },
    {
      "inputs": [],
      "name": "trustedLogger",
      "outputs": [
        {
          "internalType": "address",
          "name": "",
          "type": "address"
        }
      ],
      "stateMutability": "view",
      "type": "function"
    },
    {
      "inputs": [
        {
          "internalType": "bytes32",
          "name": "reportHash",
          "type": "bytes32"
        }
      ],
      "name": "verifyAudit",
      "outputs": [
        {
          "internalType": "bool",
          "name": "",
          "type": "bool"
        },
        {
          "components": [
            {
              "internalType": "bytes32",
              "name": "reportHash",
              "type": "bytes32"
            },
            {
              "internalType": "address",
              "name": "contractAudited",
              "type": "address"
            },
            {
              "internalType": "address",
              "name": "initiator",
              "type": "address"
            },
            {
              "internalType": "uint256",
              "name": "timestamp",
              "type": "uint256"
            },
            {
              "internalType": "uint8",
              "name": "severity",
              "type": "uint8"
            },
            {
              "internalType": "bool",
              "name": "exists",
              "type": "bool"
            }
          ],
          "internalType": "struct AuditLog.AuditEntry",
          "name": "",
          "type": "tuple"
        }
      ],
      "stateMutability": "view",
      "type": "function"
    }
  ],
  "bytecode": "0x60a060405234801561001057600080fd5b5060405161084e38038061084e83398101604081905261002f91610067565b6001600160a01b0381166100565760405163d92e233d60e01b815260040160405180910390fd5b6001600160a01b0316608052610097565b60006020828403121561007957600080fd5b81516001600160a01b038116811461009057600080fd5b9392505050565b6080516107956100b9600039600081816101e501526103dd01526107956000f3fe608060405234801561001057600080fd5b506004361061007d5760003560e01c806362324ce31161005b57806362324ce3146101c057806373ab2bb2146101e0578063a5cac6f91461021f578063f782ffdf1461023457600080fd5b806329a093a814610082578063313ef096146101975780634a07147f146101b8575b600080fd5b61013261009036600461060b565b6040805160c081018252600080825260208201819052918101829052606081018290526080810182905260a08101829052505060009081526020818152604091829020825160c0810184528154815260018201546001600160a01b03908116938201939093526002820154909216928201929092526003820154606082015260049091015460ff808216608084015261010090910416151560a0820181905291565b60408051921515835281516020808501919091528201516001600160a01b0390811684830152908201511660608084019190915281015160808084019190915281015160ff1660a0808401919091520151151560c082015260e0015b60405180910390f35b6101aa6101a536600461060b565b6102c7565b60405190815260200161018e565b6001546101aa565b6101d36101ce366004610624565b6102e8565b60405161018e9190610646565b6102077f000000000000000000000000000000000000000000000000000000000000000081565b6040516001600160a01b03909116815260200161018e565b61023261022d36600461068a565b6103d2565b005b61028961024236600461060b565b6000602081905290815260409020805460018201546002830154600384015460049094015492936001600160a01b0392831693929091169160ff8082169161010090041686565b604080519687526001600160a01b0395861660208801529390941692850192909252606084015260ff166080830152151560a082015260c00161018e565b600181815481106102d757600080fd5b600091825260209091200154905081565b6001546060906000906102fb84866106f4565b1161030f5761030a83856106f4565b610313565b6001545b905060006103218583610707565b67ffffffffffffffff8111156103395761033961071a565b604051908082528060200260200182016040528015610362578160200160208202803683370190505b509050845b828110156103c7576001818154811061038257610382610730565b906000526020600020015482878361039a9190610707565b815181106103aa576103aa610730565b6020908102919091010152806103bf81610746565b915050610367565b509150505b92915050565b336001600160a01b037f0000000000000000000000000000000000000000000000000000000000000000161461041b576040516310a16a3b60e21b815260040160405180910390fd5b600083815260208190526040902060040154610100900460ff16156104535760405163fd10cf7360e01b815260040160405180910390fd5b6001600160a01b03821661047a5760405163d92e233d60e01b815260040160405180910390fd5b6040518060c00160405280848152602001836001600160a01b03168152602001326001600160a01b031681526020014281526020018260ff168152602001600115158152506000808581526020019081526020016000206000820151816000015560208201518160010160006101000a8154816001600160a01b0302191690836001600160a01b0316021790555060408201518160020160006101000a8154816001600160a01b0302191690836001600160a01b031602179055506060820151816003015560808201518160040160006101000a81548160ff021916908360ff16021790555060a08201518160040160016101000a81548160ff0219169083151502179055509050506001839080600181540180825580915050600190039060005260206000200160009091909190915055326001600160a01b0316826001600160a01b0316847f7e56d90cd60696bb4e66588b32d68a9806369278b72b348bdc57d5aa32883fb342856040516105fe92919091825260ff16602082015260400190565b60405180910390a4505050565b60006020828403121561061d57600080fd5b5035919050565b6000806040838503121561063757600080fd5b50508035926020909101359150565b6020808252825182820181905260009190848201906040850190845b8181101561067e57835183529284019291840191600101610662565b50909695505050505050565b60008060006060848603121561069f57600080fd5b8335925060208401356001600160a01b03811681146106bd57600080fd5b9150604084013560ff811681146106d357600080fd5b809150509250925092565b634e487b7160e01b600052601160045260246000fd5b808201808211156103cc576103cc6106de565b818103818111156103cc576103cc6106de565b634e487b7160e01b600052604160045260246000fd5b634e487b7160e01b600052603260045260246000fd5b600060018201610758576107586106de565b506001019056fea2646970667358221220177654c6948e0d4ef37b4e8771b65e939bd5d2ffe5a746072878a1c46de0a8dd64736f6c63430008140033",
  "linkReferences": {},
  "deployedLinkReferences": {}
}